{
  "transactions": [
    {
      "hash": "0x7e50e4cb31d9daf252e6cf5e4cc8c96660ae32b2a1b120cbe897a7e7e9a66213",
      "transactionType": "CALL",
      "contractName": null,
      "contractAddress": "0xb733E5fF6361770771DcfE58491713661Ac11bb3",
      "function": "send((uint32,bytes32,uint256,uint256,bytes,bytes,bytes),(uint256,uint256),address)",
      "arguments": [
        "(40102, 0x0000000000000000000000002b2e23cec9921288f63f60a839e2b28235bc22ad, 100000000000000000000, 95000000000000000000, 0x00030100110100000000000000000000000000030d40, 0x, 0x)",
        "(50000000000000000, 0)",
        "0x2b2E23ceC9921288f63F60A839E2B28235bc22ad"
      ],
      "transaction": {
        "type": "0x02",
        "from": "0x2b2e23cec9921288f63f60a839e2b28235bc22ad",
        "to": "0xb733e5ff6361770771dcfe58491713661ac11bb3",
        "gas": "0x538c6",
        "value": "0xb1a2bc2ec50000",
        "data": "0xc7c7f5b3000000000000000000000000000000000000000000000000000000000000008000000000000000000000000000000000000000000000000000b1a2bc2ec5000000000000000000000000000000000000000000000000000000000000000000000000000000000000000000002b2e23cec9921288f63f60a839e2b28235bc22ad0000000000000000000000000000000000000000000000000000000000009ca60000000000000000000000002b2e23cec9921288f63f60a839e2b28235bc22ad0000000000000000000000000000000000000000000000056bc75e2d631000000000000000000000000000000000000000000000000000052663ccab1e1c000000000000000000000000000000000000000000000000000000000000000000e000000000000000000000000000000000000000000000000000000000000001200000000000000000000000000000000000000000000000000000000000000140000000000000000000000000000000000000000000000000000000000000001600030100110100000000000000000000000000030d400000000000000000000000000000000000000000000000000000000000000000000000000000000000000000000000000000000000000000000000000000000000000000000000000000",
        "nonce": "0x15d",
        "accessList": []
      },
      "additionalContracts": [],
      "isFixedGasLimit": false
    }
  ],
  "receipts": [
    {
      "transactionHash": "0x7e50e4cb31d9daf252e6cf5e4cc8c96660ae32b2a1b120cbe897a7e7e9a66213",
      "transactionIndex": "0x9",
      "blockHash": "0x03d6c8e227aef1f4ccff665ce1339171c1f2750a8130b66b357a31ffe8229d95",
      "blockNumber": "0x851f01",
      "from": "0x2b2E23ceC9921288f63F60A839E2B28235bc22ad",
      "to": "0xb733E5fF6361770771DcfE58491713661Ac11bb3",
      "cumulativeGasUsed": "0x7b9ef",
      "gasUsed": "0x39209",
      "contractAddress": null,
      "logs": [
        {
          "address": "0xb733E5fF6361770771DcfE58491713661Ac11bb3",
          "topics": [
            "0xddf252ad1be2c89b69c2b068fc378daa952ba7f163c4a11628f55a4df523b3ef",
            "0x0000000000000000000000002b2e23cec9921288f63f60a839e2b28235bc22ad",
            "0x0000000000000000000000000000000000000000000000000000000000000000"
          ],
          "data": "0x0000000000000000000000000000000000000000000000056bc75e2d63100000",
          "blockHash": "0x03d6c8e227aef1f4ccff665ce1339171c1f2750a8130b66b357a31ffe8229d95",
          "blockNumber": "0x851f01",
          "transactionHash": "0x7e50e4cb31d9daf252e6cf5e4cc8c96660ae32b2a1b120cbe897a7e7e9a66213",
          "transactionIndex": "0x9",
          "logIndex": "0x2",
          "removed": false
        },
        {
          "address": "0xcc1ae8Cf5D3904Cef3360A9532B477529b177cCE",
          "topics": [
            "0x61ed099e74a97a1d7f8bb0952a88ca8b7b8ebd00c126ea04671f92a81213318a"
          ],
          "data": "0x000000000000000000000000718b92b5cb0a5552039b593faf724d182a881eda0000000000000000000000000000000000000000000000000000656b2d1e4bcf",
          "blockHash": "0x03d6c8e227aef1f4ccff665ce1339171c1f2750a8130b66b357a31ffe8229d95",
          "blockNumber": "0x851f01",
          "transactionHash": "0x7e50e4cb31d9daf252e6cf5e4cc8c96660ae32b2a1b120cbe897a7e7e9a66213",
          "transactionIndex": "0x9",
          "logIndex": "0x3",
          "removed": false
        },
        {
          "address": "0xcc1ae8Cf5D3904Cef3360A9532B477529b177cCE",
          "topics": [
            "0x07ea52d82345d6e838192107d8fd7123d9c2ec8e916cd0aad13fd2b60db24644"
          ],
          "data": "0x000000000000000000000000000000000000000000000000000000000000006000000000000000000000000000000000000000000000000000000000000000a000000000000000000000000000000000000000000000000000000000000000c000000000000000000000000000000000000000000000000000000000000000010000000000000000000000008eebf8b423b73bfca51a1db4b7354aa0bfca91930000000000000000000000000000000000000000000000000000000000000000000000000000000000000000000000000000000000000000000000000000000100000000000000000000000000000000000000000000000000004cef540b8c51",
          "blockHash": "0x03d6c8e227aef1f4ccff665ce1339171c1f2750a8130b66b357a31ffe8229d95",
          "blockNumber": "0x851f01",
          "transactionHash": "0x7e50e4cb31d9daf252e6cf5e4cc8c96660ae32b2a1b120cbe897a7e7e9a66213",
          "transactionIndex": "0x9",
          "logIndex": "0x4",
          "removed": false
        },
        {
          "address": "0x6EDCE65403992e310A62460808c4b910D972f10f",
          "topics": [
            "0x1ab700d4ced0c005b164c0f789fd09fcbb0156d4c2041b8a3bfbcd961cd1567f"
          ],
          "data": "0x00000000000000000000000000000000000000000000000000000000000000600000000000000000000000000000000000000000000000000000000000000120000000000000000000000000cc1ae8cf5d3904cef3360a9532b477529b177cce000000000000000000000000000000000000000000000000000000000000009901000000000000000200009ce1000000000000000000000000b733e5ff6361770771dcfe58491713661ac11bb300009ca60000000000000000000000009c8749892de34dce62c06eb2e0fb1d62b8601a493a866a36395c80edfce7201022e2fd93b7334f78a11c97a73a68f4d6330b482b0000000000000000000000002b2e23cec9921288f63f60a839e2b28235bc22ad0000000005f5e10000000000000000000000000000000000000000000000000000000000000000000000000000001600030100110100000000000000000000000000030d4000000000000000000000",
          "blockHash": "0x03d6c8e227aef1f4ccff665ce1339171c1f2750a8130b66b357a31ffe8229d95",
          "blockNumber": "0x851f01",
          "transactionHash": "0x7e50e4cb31d9daf252e6cf5e4cc8c96660ae32b2a1b120cbe897a7e7e9a66213",
          "transactionIndex": "0x9",
          "logIndex": "0x5",
          "removed": false
        },
        {
          "address": "0xb733E5fF6361770771DcfE58491713661Ac11bb3",
          "topics": [
            "0x85496b760a4b7f8d66384b9df21b381f5d1b1e79f229a47aaf4c232edc2fe59a",
            "0x3a866a36395c80edfce7201022e2fd93b7334f78a11c97a73a68f4d6330b482b",
            "0x0000000000000000000000002b2e23cec9921288f63f60a839e2b28235bc22ad"
          ],
          "data": "0x0000000000000000000000000000000000000000000000000000000000009ca60000000000000000000000000000000000000000000000056bc75e2d631000000000000000000000000000000000000000000000000000056bc75e2d63100000",
          "blockHash": "0x03d6c8e227aef1f4ccff665ce1339171c1f2750a8130b66b357a31ffe8229d95",
          "blockNumber": "0x851f01",
          "transactionHash": "0x7e50e4cb31d9daf252e6cf5e4cc8c96660ae32b2a1b120cbe897a7e7e9a66213",
          "transactionIndex": "0x9",
          "logIndex": "0x6",
          "removed": false
        }
      ],
      "status": "0x1",
      "logsBloom": "0x00000000000000000000000000000000000002000000000000000000000100000000000000000000200020000000000000000000000000000000000000000000000002000000000000000008000000000000008000000000000000000000000000000000020000008200000000000800000000000000000000000010000000000000000002000220000000080000000000000000000000000000000000000000000000008000000000100000000000000000000000400000000440000000000000000002000000000000000080000000000000080000000000000000008060000000040000000000000000000000002000000004008000000800000000000020",
      "type": "0x2",
      "effectiveGasPrice": "0xb2dde893"
    }
  ],
  "libraries": [],
  "pending": [],
  "returns": {},
  "timestamp": 1752038069,
  "chain": 11155111,
  "commit": "3391353"
}