{
  "transactions": [
    {
      "hash": "0xe7608d4634dfcd6c9c50c48336f349b775a31f7a236089d1c5df827adfb10ee7",
      "transactionType": "CALL",
      "contractName": null,
      "contractAddress": "0xb733E5fF6361770771DcfE58491713661Ac11bb3",
      "function": "approve(address,uint256)",
      "arguments": [
        "0xb733E5fF6361770771DcfE58491713661Ac11bb3",
        "100000000000000000000"
      ],
      "transaction": {
        "type": "0x02",
        "from": "0x2b2e23cec9921288f63f60a839e2b28235bc22ad",
        "to": "0xb733e5ff6361770771dcfe58491713661ac11bb3",
        "gas": "0xfa79",
        "value": "0x0",
        "data": "0x095ea7b3000000000000000000000000b733e5ff6361770771dcfe58491713661ac11bb30000000000000000000000000000000000000000000000056bc75e2d63100000",
        "nonce": "0x15b",
        "accessList": []
      },
      "additionalContracts": [],
      "isFixedGasLimit": false
    },
    {
      "hash": "0x6926793022b57c8ea92f913c6d63d187c7da710816d2bd79f09b69f13fecac18",
      "transactionType": "CALL",
      "contractName": null,
      "contractAddress": "0xb733E5fF6361770771DcfE58491713661Ac11bb3",
      "function": "send((uint32,bytes32,uint256,uint256,bytes,bytes,bytes),(uint256,uint256),address)",
      "arguments": [
        "(40102, 0x0000000000000000000000002b2e23cec9921288f63f60a839e2b28235bc22ad, 100000000000000000000, 95000000000000000000, 0x0003010011010000000000000000000000000000fde8, 0x, 0x)",
        "(50000000000000000, 0)",
        "0x2b2E23ceC9921288f63F60A839E2B28235bc22ad"
      ],
      "transaction": {
        "type": "0x02",
        "from": "0x2b2e23cec9921288f63f60a839e2b28235bc22ad",
        "to": "0xb733e5ff6361770771dcfe58491713661ac11bb3",
        "gas": "0x54aa6",
        "value": "0xb1a2bc2ec50000",
        "data": "0xc7c7f5b3000000000000000000000000000000000000000000000000000000000000008000000000000000000000000000000000000000000000000000b1a2bc2ec5000000000000000000000000000000000000000000000000000000000000000000000000000000000000000000002b2e23cec9921288f63f60a839e2b28235bc22ad0000000000000000000000000000000000000000000000000000000000009ca60000000000000000000000002b2e23cec9921288f63f60a839e2b28235bc22ad0000000000000000000000000000000000000000000000056bc75e2d631000000000000000000000000000000000000000000000000000052663ccab1e1c000000000000000000000000000000000000000000000000000000000000000000e00000000000000000000000000000000000000000000000000000000000000120000000000000000000000000000000000000000000000000000000000000014000000000000000000000000000000000000000000000000000000000000000160003010011010000000000000000000000000000fde80000000000000000000000000000000000000000000000000000000000000000000000000000000000000000000000000000000000000000000000000000000000000000000000000000",
        "nonce": "0x15c",
        "accessList": []
      },
      "additionalContracts": [],
      "isFixedGasLimit": false
    }
  ],
  "receipts": [
    {
      "transactionHash": "0xe7608d4634dfcd6c9c50c48336f349b775a31f7a236089d1c5df827adfb10ee7",
      "transactionIndex": "0x6",
      "blockHash": "0x73cf72466f5b92c12e4bcb7adeb7f24445d2d2a471fbf01db5b0d2d896c85e53",
      "blockNumber": "0x851ef3",
      "from": "0x2b2E23ceC9921288f63F60A839E2B28235bc22ad",
      "to": "0xb733E5fF6361770771DcfE58491713661Ac11bb3",
      "cumulativeGasUsed": "0x51724",
      "gasUsed": "0xb557",
      "contractAddress": null,
      "logs": [
        {
          "address": "0xb733E5fF6361770771DcfE58491713661Ac11bb3",
          "topics": [
            "0x8c5be1e5ebec7d5bd14f71427d1e84f3dd0314c0f7b2291e5b200ac8c7c3b925",
            "0x0000000000000000000000002b2e23cec9921288f63f60a839e2b28235bc22ad",
            "0x000000000000000000000000b733e5ff6361770771dcfe58491713661ac11bb3"
          ],
          "data": "0x0000000000000000000000000000000000000000000000056bc75e2d63100000",
          "blockHash": "0x73cf72466f5b92c12e4bcb7adeb7f24445d2d2a471fbf01db5b0d2d896c85e53",
          "blockNumber": "0x851ef3",
          "transactionHash": "0xe7608d4634dfcd6c9c50c48336f349b775a31f7a236089d1c5df827adfb10ee7",
          "transactionIndex": "0x6",
          "logIndex": "0x6",
          "removed": false
        }
      ],
      "status": "0x1",
      "logsBloom": "0x00000000000000000000000000000000000002000000000000000000000000000000000000000000000020000000000000000000000000000000000000200000000000000000000000000000000000000000000000000000000000000000000000000000000000000800000000000000000000000000000000000000000000000000000002000000000000000000000000000000000000000000000004000000020000000000000000000000000000010000000000000000000000000000000000000000000000000000000000000000000000000000000000000000000040000010000000000000000000000000000000000004000000000800000000000000",
      "type": "0x2",
      "effectiveGasPrice": "0xb2dd25c5"
    }
  ],
  "libraries": [],
  "pending": [],
  "returns": {},
  "timestamp": 1752037894,
  "chain": 11155111,
  "commit": "3391353"
}