{
  "transactions": [
    {
      "hash": "0xde3ca9f3791d80d48d865d9a034067d8630786a85e59444ec74287fa02d6f2f8",
      "transactionType": "CALL",
      "contractName": null,
      "contractAddress": "0xb733E5fF6361770771DcfE58491713661Ac11bb3",
      "function": "send((uint32,bytes32,uint256,uint256,bytes,bytes,bytes),(uint256,uint256),address)",
      "arguments": [
        "(40102, 0x0000000000000000000000002b2e23cec9921288f63f60a839e2b28235bc22ad, 100000000000000000000, 95000000000000000000, 0x00030100110100000000000000000000000000030d40, 0x, 0x)",
        "(196101783803936, 0)",
        "0x2b2E23ceC9921288f63F60A839E2B28235bc22ad"
      ],
      "transaction": {
        "type": "0x02",
        "from": "0x2b2e23cec9921288f63f60a839e2b28235bc22ad",
        "to": "0xb733e5ff6361770771dcfe58491713661ac11bb3",
        "gas": "0x510cb",
        "value": "0xb25a8129d820",
        "data": "0xc7c7f5b300000000000000000000000000000000000000000000000000000000000000800000000000000000000000000000000000000000000000000000b25a8129d82000000000000000000000000000000000000000000000000000000000000000000000000000000000000000002b2e23cec9921288f63f60a839e2b28235bc22ad0000000000000000000000000000000000000000000000000000000000009ca60000000000000000000000002b2e23cec9921288f63f60a839e2b28235bc22ad0000000000000000000000000000000000000000000000056bc75e2d631000000000000000000000000000000000000000000000000000052663ccab1e1c000000000000000000000000000000000000000000000000000000000000000000e000000000000000000000000000000000000000000000000000000000000001200000000000000000000000000000000000000000000000000000000000000140000000000000000000000000000000000000000000000000000000000000001600030100110100000000000000000000000000030d400000000000000000000000000000000000000000000000000000000000000000000000000000000000000000000000000000000000000000000000000000000000000000000000000000",
        "nonce": "0x15e",
        "accessList": []
      },
      "additionalContracts": [],
      "isFixedGasLimit": false
    }
  ],
  "receipts": [
    {
      "transactionHash": "0xde3ca9f3791d80d48d865d9a034067d8630786a85e59444ec74287fa02d6f2f8",
      "transactionIndex": "0x2",
      "blockHash": "0xbd00c149dc02581afc9a8b9940a9bfc5ad34550b3158a801f06072db3150b306",
      "blockNumber": "0x851f1a",
      "from": "0x2b2E23ceC9921288f63F60A839E2B28235bc22ad",
      "to": "0xb733E5fF6361770771DcfE58491713661Ac11bb3",
      "cumulativeGasUsed": "0x48c0b",
      "gasUsed": "0x376b3",
      "contractAddress": null,
      "logs": [
        {
          "address": "0xb733E5fF6361770771DcfE58491713661Ac11bb3",
          "topics": [
            "0xddf252ad1be2c89b69c2b068fc378daa952ba7f163c4a11628f55a4df523b3ef",
            "0x0000000000000000000000002b2e23cec9921288f63f60a839e2b28235bc22ad",
            "0x0000000000000000000000000000000000000000000000000000000000000000"
          ],
          "data": "0x0000000000000000000000000000000000000000000000056bc75e2d63100000",
          "blockHash": "0xbd00c149dc02581afc9a8b9940a9bfc5ad34550b3158a801f06072db3150b306",
          "blockNumber": "0x851f1a",
          "transactionHash": "0xde3ca9f3791d80d48d865d9a034067d8630786a85e59444ec74287fa02d6f2f8",
          "transactionIndex": "0x2",
          "logIndex": "0x0",
          "removed": false
        },
        {
          "address": "0xcc1ae8Cf5D3904Cef3360A9532B477529b177cCE",
          "topics": [
            "0x61ed099e74a97a1d7f8bb0952a88ca8b7b8ebd00c126ea04671f92a81213318a"
          ],
          "data": "0x000000000000000000000000718b92b5cb0a5552039b593faf724d182a881eda0000000000000000000000000000000000000000000000000000656b2d1e4bcf",
          "blockHash": "0xbd00c149dc02581afc9a8b9940a9bfc5ad34550b3158a801f06072db3150b306",
          "blockNumber": "0x851f1a",
          "transactionHash": "0xde3ca9f3791d80d48d865d9a034067d8630786a85e59444ec74287fa02d6f2f8",
          "transactionIndex": "0x2",
          "logIndex": "0x1",
          "removed": false
        },
        {
          "address": "0xcc1ae8Cf5D3904Cef3360A9532B477529b177cCE",
          "topics": [
            "0x07ea52d82345d6e838192107d8fd7123d9c2ec8e916cd0aad13fd2b60db24644"
          ],
          "data": "0x000000000000000000000000000000000000000000000000000000000000006000000000000000000000000000000000000000000000000000000000000000a000000000000000000000000000000000000000000000000000000000000000c000000000000000000000000000000000000000000000000000000000000000010000000000000000000000008eebf8b423b73bfca51a1db4b7354aa0bfca91930000000000000000000000000000000000000000000000000000000000000000000000000000000000000000000000000000000000000000000000000000000100000000000000000000000000000000000000000000000000004cef540b8c51",
          "blockHash": "0xbd00c149dc02581afc9a8b9940a9bfc5ad34550b3158a801f06072db3150b306",
          "blockNumber": "0x851f1a",
          "transactionHash": "0xde3ca9f3791d80d48d865d9a034067d8630786a85e59444ec74287fa02d6f2f8",
          "transactionIndex": "0x2",
          "logIndex": "0x2",
          "removed": false
        },
        {
          "address": "0x6EDCE65403992e310A62460808c4b910D972f10f",
          "topics": [
            "0x1ab700d4ced0c005b164c0f789fd09fcbb0156d4c2041b8a3bfbcd961cd1567f"
          ],
          "data": "0x00000000000000000000000000000000000000000000000000000000000000600000000000000000000000000000000000000000000000000000000000000120000000000000000000000000cc1ae8cf5d3904cef3360a9532b477529b177cce000000000000000000000000000000000000000000000000000000000000009901000000000000000300009ce1000000000000000000000000b733e5ff6361770771dcfe58491713661ac11bb300009ca60000000000000000000000009c8749892de34dce62c06eb2e0fb1d62b8601a490fd996777d78fed224d52d053d02b9685897780030c988fc7c96dbd29aaacd3d0000000000000000000000002b2e23cec9921288f63f60a839e2b28235bc22ad0000000005f5e10000000000000000000000000000000000000000000000000000000000000000000000000000001600030100110100000000000000000000000000030d4000000000000000000000",
          "blockHash": "0xbd00c149dc02581afc9a8b9940a9bfc5ad34550b3158a801f06072db3150b306",
          "blockNumber": "0x851f1a",
          "transactionHash": "0xde3ca9f3791d80d48d865d9a034067d8630786a85e59444ec74287fa02d6f2f8",
          "transactionIndex": "0x2",
          "logIndex": "0x3",
          "removed": false
        },
        {
          "address": "0xb733E5fF6361770771DcfE58491713661Ac11bb3",
          "topics": [
            "0x85496b760a4b7f8d66384b9df21b381f5d1b1e79f229a47aaf4c232edc2fe59a",
            "0x0fd996777d78fed224d52d053d02b9685897780030c988fc7c96dbd29aaacd3d",
            "0x0000000000000000000000002b2e23cec9921288f63f60a839e2b28235bc22ad"
          ],
          "data": "0x0000000000000000000000000000000000000000000000000000000000009ca60000000000000000000000000000000000000000000000056bc75e2d631000000000000000000000000000000000000000000000000000056bc75e2d63100000",
          "blockHash": "0xbd00c149dc02581afc9a8b9940a9bfc5ad34550b3158a801f06072db3150b306",
          "blockNumber": "0x851f1a",
          "transactionHash": "0xde3ca9f3791d80d48d865d9a034067d8630786a85e59444ec74287fa02d6f2f8",
          "transactionIndex": "0x2",
          "logIndex": "0x4",
          "removed": false
        }
      ],
      "status": "0x1",
      "logsBloom": "0x00000000000000000000000000000000000002000000000000000000000100000000000000000000200020000000000000000000000000000000000000000000000002000000000000000008000000000000000000400000000000000000000000000000020000008200000000000800000000000000000000000010000000000000000002000020000000080000000000000000000000000000000000000000000000008000000000100000000000000000000000400000000440000000000000000002000000000000000080000000000000080000000000000000000060000000040000000000000000000001002000000004008000000800000020000020",
      "type": "0x2",
      "effectiveGasPrice": "0xb2dd65a1"
    }
  ],
  "libraries": [],
  "pending": [],
  "returns": {},
  "timestamp": 1752038366,
  "chain": 11155111,
  "commit": "3391353"
}