{
  "transactions": [
    {
      "hash": "0xe0333f788a120e2124e4d648e9b053020e032386c7d8bdc0393cf6886c2e6a7b",
      "transactionType": "CALL",
      "contractName": null,
      "contractAddress": "0xa94d7294d08a86e842a7704350bf7fd5621e8163",
      "function": "send((uint32,bytes32,uint256,uint256,bytes,bytes,bytes),(uint256,uint256),address)",
      "arguments": [
        "(40102, 0x0000000000000000000000002b2e23cec9921288f63f60a839e2b28235bc22ad, 100000000000000000000, 95000000000000000000, 0x00030100110100000000000000000000000000030d40, 0x, 0x)",
        "(155749108050378, 0)",
        "0x2b2E23ceC9921288f63F60A839E2B28235bc22ad"
      ],
      "transaction": {
        "from": "0x2b2e23cec9921288f63f60a839e2b28235bc22ad",
        "to": "0xa94d7294d08a86e842a7704350bf7fd5621e8163",
        "gas": "0x53edc",
        "value": "0x8da72a4269ca",
        "input": "0xc7c7f5b3000000000000000000000000000000000000000000000000000000000000008000000000000000000000000000000000000000000000000000008da72a4269ca00000000000000000000000000000000000000000000000000000000000000000000000000000000000000002b2e23cec9921288f63f60a839e2b28235bc22ad0000000000000000000000000000000000000000000000000000000000009ca60000000000000000000000002b2e23cec9921288f63f60a839e2b28235bc22ad0000000000000000000000000000000000000000000000056bc75e2d631000000000000000000000000000000000000000000000000000052663ccab1e1c000000000000000000000000000000000000000000000000000000000000000000e000000000000000000000000000000000000000000000000000000000000001200000000000000000000000000000000000000000000000000000000000000140000000000000000000000000000000000000000000000000000000000000001600030100110100000000000000000000000000030d400000000000000000000000000000000000000000000000000000000000000000000000000000000000000000000000000000000000000000000000000000000000000000000000000000",
        "nonce": "0x161",
        "chainId": "0xaa36a7"
      },
      "additionalContracts": [],
      "isFixedGasLimit": false
    }
  ],
  "receipts": [
    {
      "status": "0x1",
      "cumulativeGasUsed": "0xb410c4",
      "logs": [
        {
          "address": "0xa94d7294d08a86e842a7704350bf7fd5621e8163",
          "topics": [
            "0xddf252ad1be2c89b69c2b068fc378daa952ba7f163c4a11628f55a4df523b3ef",
            "0x0000000000000000000000002b2e23cec9921288f63f60a839e2b28235bc22ad",
            "0x0000000000000000000000000000000000000000000000000000000000000000"
          ],
          "data": "0x0000000000000000000000000000000000000000000000056bc75e2d63100000",
          "blockHash": "0xeb91544b38041a95389d92bfd137bfca7b9a80c35e3105fb1eed28f2e1da942d",
          "blockNumber": "0x885432",
          "transactionHash": "0xe0333f788a120e2124e4d648e9b053020e032386c7d8bdc0393cf6886c2e6a7b",
          "transactionIndex": "0x4a",
          "logIndex": "0x88",
          "removed": false
        },
        {
          "address": "0xcc1ae8cf5d3904cef3360a9532b477529b177cce",
          "topics": [
            "0x61ed099e74a97a1d7f8bb0952a88ca8b7b8ebd00c126ea04671f92a81213318a"
          ],
          "data": "0x000000000000000000000000718b92b5cb0a5552039b593faf724d182a881eda00000000000000000000000000000000000000000000000000005390bf0b0c55",
          "blockHash": "0xeb91544b38041a95389d92bfd137bfca7b9a80c35e3105fb1eed28f2e1da942d",
          "blockNumber": "0x885432",
          "transactionHash": "0xe0333f788a120e2124e4d648e9b053020e032386c7d8bdc0393cf6886c2e6a7b",
          "transactionIndex": "0x4a",
          "logIndex": "0x89",
          "removed": false
        },
        {
          "address": "0xcc1ae8cf5d3904cef3360a9532b477529b177cce",
          "topics": [
            "0x07ea52d82345d6e838192107d8fd7123d9c2ec8e916cd0aad13fd2b60db24644"
          ],
          "data": "0x000000000000000000000000000000000000000000000000000000000000006000000000000000000000000000000000000000000000000000000000000000a000000000000000000000000000000000000000000000000000000000000000c000000000000000000000000000000000000000000000000000000000000000010000000000000000000000008eebf8b423b73bfca51a1db4b7354aa0bfca91930000000000000000000000000000000000000000000000000000000000000000000000000000000000000000000000000000000000000000000000000000000100000000000000000000000000000000000000000000000000003a166b375d75",
          "blockHash": "0xeb91544b38041a95389d92bfd137bfca7b9a80c35e3105fb1eed28f2e1da942d",
          "blockNumber": "0x885432",
          "transactionHash": "0xe0333f788a120e2124e4d648e9b053020e032386c7d8bdc0393cf6886c2e6a7b",
          "transactionIndex": "0x4a",
          "logIndex": "0x8a",
          "removed": false
        },
        {
          "address": "0x6edce65403992e310a62460808c4b910d972f10f",
          "topics": [
            "0x1ab700d4ced0c005b164c0f789fd09fcbb0156d4c2041b8a3bfbcd961cd1567f"
          ],
          "data": "0x00000000000000000000000000000000000000000000000000000000000000600000000000000000000000000000000000000000000000000000000000000120000000000000000000000000cc1ae8cf5d3904cef3360a9532b477529b177cce000000000000000000000000000000000000000000000000000000000000009901000000000000000100009ce1000000000000000000000000a94d7294d08a86e842a7704350bf7fd5621e816300009ca600000000000000000000000018d003b0f92675bed28d6efd1a5c18d61ec8b958bdbdf01b6b6a9638e248bb0a60eb8565a7c13cf8240bb5f41043b326df36abab0000000000000000000000002b2e23cec9921288f63f60a839e2b28235bc22ad0000000005f5e10000000000000000000000000000000000000000000000000000000000000000000000000000001600030100110100000000000000000000000000030d4000000000000000000000",
          "blockHash": "0xeb91544b38041a95389d92bfd137bfca7b9a80c35e3105fb1eed28f2e1da942d",
          "blockNumber": "0x885432",
          "transactionHash": "0xe0333f788a120e2124e4d648e9b053020e032386c7d8bdc0393cf6886c2e6a7b",
          "transactionIndex": "0x4a",
          "logIndex": "0x8b",
          "removed": false
        },
        {
          "address": "0xa94d7294d08a86e842a7704350bf7fd5621e8163",
          "topics": [
            "0x85496b760a4b7f8d66384b9df21b381f5d1b1e79f229a47aaf4c232edc2fe59a",
            "0xbdbdf01b6b6a9638e248bb0a60eb8565a7c13cf8240bb5f41043b326df36abab",
            "0x0000000000000000000000002b2e23cec9921288f63f60a839e2b28235bc22ad"
          ],
          "data": "0x0000000000000000000000000000000000000000000000000000000000009ca60000000000000000000000000000000000000000000000056bc75e2d631000000000000000000000000000000000000000000000000000056bc75e2d63100000",
          "blockHash": "0xeb91544b38041a95389d92bfd137bfca7b9a80c35e3105fb1eed28f2e1da942d",
          "blockNumber": "0x885432",
          "transactionHash": "0xe0333f788a120e2124e4d648e9b053020e032386c7d8bdc0393cf6886c2e6a7b",
          "transactionIndex": "0x4a",
          "logIndex": "0x8c",
          "removed": false
        }
      ],
      "logsBloom": "0x00000000000000000000000000800000000000000000010000000000000100000000000000000000200020000000000000000000000000000000000000000000000002000000000000000008000000000000000000000000000000000000000000000000020000008200000000000880000000000000000000000010000000000000000002000020000000080000000000000000000000000000000000000000000000008000000000100000000000000000000000400008000440000000000000000002000000000040000080000000000000080000000000000000000020000000040000000000000000000000002000000004008000000000000000400020",
      "type": "0x2",
      "transactionHash": "0xe0333f788a120e2124e4d648e9b053020e032386c7d8bdc0393cf6886c2e6a7b",
      "transactionIndex": "0x4a",
      "blockHash": "0xeb91544b38041a95389d92bfd137bfca7b9a80c35e3105fb1eed28f2e1da942d",
      "blockNumber": "0x885432",
      "gasUsed": "0x3cc35",
      "effectiveGasPrice": "0x29973a",
      "from": "0x2b2e23cec9921288f63f60a839e2b28235bc22ad",
      "to": "0xa94d7294d08a86e842a7704350bf7fd5621e8163",
      "contractAddress": null
    }
  ],
  "libraries": [],
  "pending": [],
  "returns": {},
  "timestamp": 1754594210034,
  "chain": 11155111,
  "commit": "9ed58ad"
}