{
  "transactions": [
    {
      "hash": "0xe5b4a30500ed19b41ad73bbcc8662713466d537bfc86a1c647471c7e0fc07912",
      "transactionType": "CALL",
      "contractName": null,
      "contractAddress": "0x9c8749892De34dCe62C06eb2E0Fb1D62B8601a49",
      "function": "setPeer(uint32,bytes32)",
      "arguments": [
        "40161",
        "0x000000000000000000000000b733e5ff6361770771dcfe58491713661ac11bb3"
      ],
      "transaction": {
        "type": "0x00",
        "from": "0x2b2e23cec9921288f63f60a839e2b28235bc22ad",
        "to": "0x9c8749892de34dce62c06eb2e0fb1d62b8601a49",
        "gas": "0x1109f",
        "value": "0x0",
        "data": "0x3400288b0000000000000000000000000000000000000000000000000000000000009ce1000000000000000000000000b733e5ff6361770771dcfe58491713661ac11bb3",
        "nonce": "0x8"
      },
      "additionalContracts": [],
      "isFixedGasLimit": false
    }
  ],
  "receipts": [
    {
      "transactionHash": "0xe5b4a30500ed19b41ad73bbcc8662713466d537bfc86a1c647471c7e0fc07912",
      "transactionIndex": "0x1",
      "blockHash": "0xcc9104222b4b431d70603908915300b482208797cdd12bd57b0800c9584f1299",
      "blockNumber": "0x36ef22e",
      "from": "0x2b2E23ceC9921288f63F60A839E2B28235bc22ad",
      "to": "0x9c8749892De34dCe62C06eb2E0Fb1D62B8601a49",
      "cumulativeGasUsed": "0x71f56",
      "gasUsed": "0xba69",
      "contractAddress": null,
      "logs": [
        {
          "address": "0x9c8749892De34dCe62C06eb2E0Fb1D62B8601a49",
          "topics": [
            "0x238399d427b947898edb290f5ff0f9109849b1c3ba196a42e35f00c50a54b98b"
          ],
          "data": "0x0000000000000000000000000000000000000000000000000000000000009ce1000000000000000000000000b733e5ff6361770771dcfe58491713661ac11bb3",
          "blockHash": "0xcc9104222b4b431d70603908915300b482208797cdd12bd57b0800c9584f1299",
          "blockNumber": "0x36ef22e",
          "transactionHash": "0xe5b4a30500ed19b41ad73bbcc8662713466d537bfc86a1c647471c7e0fc07912",
          "transactionIndex": "0x1",
          "logIndex": "0xb",
          "removed": false
        }
      ],
      "status": "0x1",
      "logsBloom": "0x00000000000000000000000000000000000000000000000000000000000000000000000000000000000000000000000000000000000000000800000000000000000000000000000000000000000000000000000000000000000000000000000000000000000000080000000000000000000000000000000000000000000000000000000000000000000000000000000000000000000000000000000000000000000000000000000000002000000000000000000000000000000002000000000000000000000000000000000000000000000000000000000000040000000000000000000800000000000000000000000000000000000000000000000000000000",
      "type": "0x0",
      "effectiveGasPrice": "0x3b9aca00"
    }
  ],
  "libraries": [],
  "pending": [],
  "returns": {},
  "timestamp": 1752032322,
  "chain": 97,
  "commit": "3391353"
}