{
  "transactions": [
    {
      "hash": "0xada78faadd97ffdf9cdc3f96dec8b72763f99a6789a070c92aede73b502ea29e",
      "transactionType": "CALL",
      "contractName": null,
      "contractAddress": "0x9c8749892De34dCe62C06eb2E0Fb1D62B8601a49",
      "function": "setPeer(uint32,bytes32)",
      "arguments": [
        "10161",
        "0x000000000000000000000000b733e5ff6361770771dcfe58491713661ac11bb3"
      ],
      "transaction": {
        "type": "0x00",
        "from": "0x2b2e23cec9921288f63f60a839e2b28235bc22ad",
        "to": "0x9c8749892de34dce62c06eb2e0fb1d62b8601a49",
        "gas": "0x1109f",
        "value": "0x0",
        "data": "0x3400288b00000000000000000000000000000000000000000000000000000000000027b1000000000000000000000000b733e5ff6361770771dcfe58491713661ac11bb3",
        "nonce": "0x7"
      },
      "additionalContracts": [],
      "isFixedGasLimit": false
    }
  ],
  "receipts": [
    {
      "transactionHash": "0xada78faadd97ffdf9cdc3f96dec8b72763f99a6789a070c92aede73b502ea29e",
      "transactionIndex": "0x1",
      "blockHash": "0xe4ede79f34dae2d7ab8c6829b4a737df73bef22e05c6045a14e12ae07ce94c4b",
      "blockNumber": "0x36ef06e",
      "from": "0x2b2E23ceC9921288f63F60A839E2B28235bc22ad",
      "to": "0x9c8749892De34dCe62C06eb2E0Fb1D62B8601a49",
      "cumulativeGasUsed": "0x2ebff",
      "gasUsed": "0xba69",
      "contractAddress": null,
      "logs": [
        {
          "address": "0x9c8749892De34dCe62C06eb2E0Fb1D62B8601a49",
          "topics": [
            "0x238399d427b947898edb290f5ff0f9109849b1c3ba196a42e35f00c50a54b98b"
          ],
          "data": "0x00000000000000000000000000000000000000000000000000000000000027b1000000000000000000000000b733e5ff6361770771dcfe58491713661ac11bb3",
          "blockHash": "0xe4ede79f34dae2d7ab8c6829b4a737df73bef22e05c6045a14e12ae07ce94c4b",
          "blockNumber": "0x36ef06e",
          "transactionHash": "0xada78faadd97ffdf9cdc3f96dec8b72763f99a6789a070c92aede73b502ea29e",
          "transactionIndex": "0x1",
          "logIndex": "0x4",
          "removed": false
        }
      ],
      "status": "0x1",
      "logsBloom": "0x00000000000000000000000000000000000000000000000000000000000000000000000000000000000000000000000000000000000000000800000000000000000000000000000000000000000000000000000000000000000000000000000000000000000000080000000000000000000000000000000000000000000000000000000000000000000000000000000000000000000000000000000000000000000000000000000000002000000000000000000000000000000002000000000000000000000000000000000000000000000000000000000000040000000000000000000800000000000000000000000000000000000000000000000000000000",
      "type": "0x0",
      "effectiveGasPrice": "0x3b9aca00"
    }
  ],
  "libraries": [],
  "pending": [],
  "returns": {},
  "timestamp": 1752031986,
  "chain": 97,
  "commit": "3391353"
}