{
  "transactions": [
    {
      "hash": "0x6eeadca78efaa2f8536ecc819654bd6a6d2300adfa8a471e007c02b3d9cdec15",
      "transactionType": "CALL",
      "contractName": null,
      "contractAddress": "0xb733E5fF6361770771DcfE58491713661Ac11bb3",
      "function": "setPeer(uint32,bytes32)",
      "arguments": [
        "10297",
        "0x0000000000000000000000009c8749892de34dce62c06eb2e0fb1d62b8601a49"
      ],
      "transaction": {
        "type": "0x02",
        "from": "0x2b2e23cec9921288f63f60a839e2b28235bc22ad",
        "to": "0xb733e5ff6361770771dcfe58491713661ac11bb3",
        "gas": "0x1109f",
        "value": "0x0",
        "data": "0x3400288b00000000000000000000000000000000000000000000000000000000000028390000000000000000000000009c8749892de34dce62c06eb2e0fb1d62b8601a49",
        "nonce": "0x159",
        "accessList": []
      },
      "additionalContracts": [],
      "isFixedGasLimit": false
    }
  ],
  "receipts": [
    {
      "transactionHash": "0x6eeadca78efaa2f8536ecc819654bd6a6d2300adfa8a471e007c02b3d9cdec15",
      "transactionIndex": "0x5",
      "blockHash": "0x31f1fda5032e349647b886dd44ee5febbdd505fa2bdef9c5cfa5357c2a2b1251",
      "blockNumber": "0x851d04",
      "from": "0x2b2E23ceC9921288f63F60A839E2B28235bc22ad",
      "to": "0xb733E5fF6361770771DcfE58491713661Ac11bb3",
      "cumulativeGasUsed": "0x58579",
      "gasUsed": "0xba69",
      "contractAddress": null,
      "logs": [
        {
          "address": "0xb733E5fF6361770771DcfE58491713661Ac11bb3",
          "topics": [
            "0x238399d427b947898edb290f5ff0f9109849b1c3ba196a42e35f00c50a54b98b"
          ],
          "data": "0x00000000000000000000000000000000000000000000000000000000000028390000000000000000000000009c8749892de34dce62c06eb2e0fb1d62b8601a49",
          "blockHash": "0x31f1fda5032e349647b886dd44ee5febbdd505fa2bdef9c5cfa5357c2a2b1251",
          "blockNumber": "0x851d04",
          "transactionHash": "0x6eeadca78efaa2f8536ecc819654bd6a6d2300adfa8a471e007c02b3d9cdec15",
          "transactionIndex": "0x5",
          "logIndex": "0x3",
          "removed": false
        }
      ],
      "status": "0x1",
      "logsBloom": "0x00000000000000000000000000000000000002000000000000000000000000000000000000000000000000000000000000000000000000000800000000000000000000000000000000000000000000000000000000000000000000000000000000000000000000000000000000000000000000000000000000000000000000000000000000000000000000000000000000000000000000000000000000000000000000000000000000000000000000000000000000000000000002000000000000000000000000000000000000000000000000000000000000040000000040000000000000000000000000000000000000000000000000000800000000000000",
      "type": "0x2",
      "effectiveGasPrice": "0xb3757a79"
    }
  ],
  "libraries": [],
  "pending": [],
  "returns": {},
  "timestamp": 1752031947,
  "chain": 11155111,
  "commit": "3391353"
}