{
  "transactions": [
    {
      "hash": "0x08449bd60bca2c0f036ae24c3a6b9b48d7e5653caace31c6c3335c59bc5a5031",
      "transactionType": "CALL",
      "contractName": null,
      "contractAddress": "0xb733E5fF6361770771DcfE58491713661Ac11bb3",
      "function": "setPeer(uint32,bytes32)",
      "arguments": [
        "40102",
        "0x0000000000000000000000009c8749892de34dce62c06eb2e0fb1d62b8601a49"
      ],
      "transaction": {
        "type": "0x02",
        "from": "0x2b2e23cec9921288f63f60a839e2b28235bc22ad",
        "to": "0xb733e5ff6361770771dcfe58491713661ac11bb3",
        "gas": "0x1109f",
        "value": "0x0",
        "data": "0x3400288b0000000000000000000000000000000000000000000000000000000000009ca60000000000000000000000009c8749892de34dce62c06eb2e0fb1d62b8601a49",
        "nonce": "0x15a",
        "accessList": []
      },
      "additionalContracts": [],
      "isFixedGasLimit": false
    }
  ],
  "receipts": [
    {
      "transactionHash": "0x08449bd60bca2c0f036ae24c3a6b9b48d7e5653caace31c6c3335c59bc5a5031",
      "transactionIndex": "0x8",
      "blockHash": "0x3c01a720a2553069c36d92440c2d540aad4643ac29206c5d7e5de697503a6c4f",
      "blockNumber": "0x851d29",
      "from": "0x2b2E23ceC9921288f63F60A839E2B28235bc22ad",
      "to": "0xb733E5fF6361770771DcfE58491713661Ac11bb3",
      "cumulativeGasUsed": "0xb8dbd",
      "gasUsed": "0xba69",
      "contractAddress": null,
      "logs": [
        {
          "address": "0xb733E5fF6361770771DcfE58491713661Ac11bb3",
          "topics": [
            "0x238399d427b947898edb290f5ff0f9109849b1c3ba196a42e35f00c50a54b98b"
          ],
          "data": "0x0000000000000000000000000000000000000000000000000000000000009ca60000000000000000000000009c8749892de34dce62c06eb2e0fb1d62b8601a49",
          "blockHash": "0x3c01a720a2553069c36d92440c2d540aad4643ac29206c5d7e5de697503a6c4f",
          "blockNumber": "0x851d29",
          "transactionHash": "0x08449bd60bca2c0f036ae24c3a6b9b48d7e5653caace31c6c3335c59bc5a5031",
          "transactionIndex": "0x8",
          "logIndex": "0x8",
          "removed": false
        }
      ],
      "status": "0x1",
      "logsBloom": "0x00000000000000000000000000000000000002000000000000000000000000000000000000000000000000000000000000000000000000000800000000000000000000000000000000000000000000000000000000000000000000000000000000000000000000000000000000000000000000000000000000000000000000000000000000000000000000000000000000000000000000000000000000000000000000000000000000000000000000000000000000000000000002000000000000000000000000000000000000000000000000000000000000040000000040000000000000000000000000000000000000000000000000000800000000000000",
      "type": "0x2",
      "effectiveGasPrice": "0xb31f8952"
    }
  ],
  "libraries": [],
  "pending": [],
  "returns": {},
  "timestamp": 1752032390,
  "chain": 11155111,
  "commit": "3391353"
}